:100000000C9463000C948B000C948B000C948B006C
:100010000C948B000C948B000C948B000C945B0460
:100020000C948B000C948B000C948B000C948B0024
:100030000C948B000C948B000C948B000C948B0014
:100040000C94B7040C948B000C948B000C948B00D4
:100050000C948B000C948B000C948B000C948B00F4
:100060000C948B000C948B000000000024002700EF
:100070002A000000000023002600290000000008DC
:10008000000201000003040700000000000000005F
:10009000010204081020408001020408102001021F
:1000A0000408102000000000250028002B00040494
:1000B0000404040404040202020202020303030310
:1000C00003030200B70611241FBECFEFD8E0DEBF46
:1000D000CDBF11E0A0E0B1E0EEE3FEE002C005908C
:1000E0000D92A435B107D9F721E0A4E5B1E001C034
:1000F0001D92AA38B207E1F710E0C3E6D0E004C0D1
:100100002197FE010E941707C236D107C9F70E9446
:1001100001050C941D070C940000AF92BF92CF9282
:10012000DF92EF92FF920F931F93CF93DF936C01B7
:100130007B018B01040F151FEB015E01AE18BF0898
:10014000C017D10759F06991D601ED91FC9101904A
:10015000F081E02DC6010995892B79F7C501DF9162
:10016000CF911F910F91FF90EF90DF90CF90BF90B4
:10017000AF900895833081F028F4813099F0823077
:10018000A9F008958730A9F08830C9F08430B1F41F
:10019000809180008F7D03C0809180008F77809355
:1001A0008000089584B58F7784BD089584B58F7DD0
:1001B000FBCF8091B0008F778093B000089580913D
:1001C000B0008F7DF9CF1F93CF93DF93282F30E0BE
:1001D000F901E458FF4F8491F901E057FF4FD491A2
:1001E000F901E255FF4FC491CC23A9F0162F8111DC
:1001F0000E94BA00EC2FF0E0EE0FFF1FEC55FF4F0E
:10020000A591B4918FB7F894EC91111108C0D095D5
:10021000DE23DC938FBFDF91CF911F910895DE2BFA
:10022000F8CF9091000189130BC0E2ECF0E0E4916B
:100230009FEF90930001E13049F028F0E23061F047
:1002400060E00C94E30010926E00FACF90916F0082
:100250009D7F90936F00F4CF909170009D7F90935D
:10026000700091E09093B0009091B100987F9460FD
:100270009093B1001092B300E3CFCF93DF9390E05F
:10028000FC01E057FF4F249182559F4FFC01849160
:100290008823D1F090E0880F991FFC01E859FF4FA7
:1002A000A591B491FC01EC55FF4FC591D49161111A
:1002B0000EC09FB7F8948C91E22FE0958E238C931B
:1002C0002881E223E8839FBFDF91CF9108958FB704
:1002D000F894EC91E22BEC938FBFF6CFCF92DF92A4
:1002E000EF92FF92CF936C0180910001803149F031
:1002F0008F3F09F444C0CF91FF90EF90DF90CF90F3
:100300000895E2ECF0E0C491C7FDF5CF61E080E133
:100310000E943D01F12CE12CCC23D9F0960150E054
:1003200040E0C23009F09AC07A0160E970ED83E0E4
:1003300090E00E94D606BA01A90141505109610915
:10034000710993E04F3F51056105710509F00CF407
:10035000C1C068E478EE81E090E0A70196010E94B8
:10036000D606BA01A901415051096109710994E009
:10037000C111B0C085B5887F836085BDB7C080E1FD
:1003800080930001E2ECF0E0C491CF3F09F4B3CFD9
:10039000C13021F150F0C23009F43EC0C7FDABCFEF
:1003A00061E080E10E943D01B9CF14BC15BC84B569
:1003B000826084BD85B5816085BDEEEBF0E0E4919F
:1003C000F0E0EE0FFF1FEC55FF4F85919491E0EAAE
:1003D000F0E0E491E0936501C0E098CF10928000D6
:1003E00010928100809181008860809381008091CB
:1003F0008100816080938100EEEBF0E0E491F0E019
:10040000EE0FFF1FEC55FF4F85919491E0EAF0E06D
:10041000E491E09364017ACF1092B0001092B100A1
:100420008091B00082608093B0008091B1008160C3
:100430008093B100EEEBF0E0E491F0E0EE0FFF1FEF
:10044000EC55FF4F859194919093630180936201E5
:10045000E0EAF0E0E491E093610158CF60E072E1FE
:100460008AE790E00E94D606BA01A90141505109DD
:1004700061097109C130A1F580918100887F816097
:100480008093810050938900409388008FEF9FEF05
:10049000DC0180936A0190936B01A0936C01B0938F
:1004A0006D0180916F00826080936F0024CF409334
:1004B000B3008FEF9FEFDC0180936601909367019B
:1004C000A0936801B093690180917000826080936D
:1004D000700011CF8091B100887F892B8093B1008B
:1004E000C13081F2C23019F3C11105CF47BD8FEF82
:1004F0009FEFDC0180936E0190936F01A0937001D8
:10050000B093710180916E00826080936E00F3CE93
:100510008E50806480937C0080917A008064809308
:100520007A0080917A0086FDFCCF809178009091CE
:10053000790008953FB7F8948091590190915A013C
:10054000A0915B01B0915C0126B5A89B05C02F3F2F
:1005500019F00196A11DB11D3FBFBA2FA92F982FE9
:100560008827BC01CD01620F711D811D911D42E0E4
:10057000660F771F881F991F4A95D1F708958F92AC
:100580009F92AF92BF92CF92DF92EF92FF924B0178
:100590005C010E949A026B017C010E949A026C1914
:1005A0007D098E099F09683E734081059105A8F376
:1005B00021E0821A9108A108B10888EEC80E83E0F4
:1005C000D81EE11CF11C81149104A104B10429F787
:1005D000FF90EF90DF90CF90BF90AF909F908F9063
:1005E0000895089590E080E00895FC0101900020B6
:1005F000E9F73197AF01481B590BBC0182E791E045
:100600000C948D00CF93DF93EC0160E08E810E940B
:10061000E30061E08E810E94E30060E08E810E9431
:10062000E3008BE891E00197F1F7DF91CF91089516
:10063000CF92DF92EF92FF920F931F93CF93DF93AE
:100640006C017C0187E0E80EF11CD0E0C0E0062FD1
:1006500010E0B8010C2E02C0759567950A94E2F778
:100660006170F70181917F010E94E3002196C430FF
:10067000D10579F7C601DF91CF911F910F91FF90BE
:10068000EF90DF90CF900C940203CF92DF92EF9225
:10069000FF920F931F93CF93DF93EC01F62E642FFD
:1006A0008C810E94E3008D818F3F19F060E00E94F1
:1006B000E3000F2D10E08F8584FF25C06E0187E0D9
:1006C000C80ED11CF12CE12CB8010E2C02C075957E
:1006D00067950A94E2F76170F60181916F010E94BB
:1006E000E300FFEFEF1AFF0A88E0E816F10461F774
:1006F000CE01DF91CF911F910F91FF90EF90DF908E
:10070000CF900C940203B80184E0759567958A95A3
:10071000E1F7CE010E9418036F2DCE01DF91CF913A
:100720001F910F91FF90EF90DF90CF900C941803E2
:1007300040E0682F82E791E00C94450381E00E943D
:1007400098038BE39FE10197F1F70895CF93DF932F
:10075000613029F0909181019860909381016093BC
:1007600085011092860190E490938701809388011F
:10077000805C8093890161E0809176010E943D0157
:10078000809177018F3F19F061E00E943D0161E0A7
:10079000809178010E943D01C2E7D1E09E0122577D
:1007A00031408091810184FD0BC084E090E021966E
:1007B0002817390744F461E08E810E943D01EECF95
:1007C00088E090E0F4CF8BE39DE00197F1F760E0E3
:1007D000809176010E94E30060E0809178010E94A0
:1007E000E300809177018F3F19F060E00E94E30001
:1007F0008091810184FD34C063E082E791E00E9432
:100800001803CBE4D6E4CE010197F1F763E082E769
:1008100091E00E9418032197F1F763E082E791E0ED
:100820000E94180383E592E00197F1F762E082E706
:1008300091E00E9418038091810180620E949803D8
:1008400084E0809382018CE00E9498030E949E03C2
:1008500082E08093830186E0DF91CF910C9498032E
:1008600080620E9498038BE496E40197F1F78091EF
:10087000810180620E94980383E592E00197F1F77D
:100880008091810180620E949803D5CF909185016B
:10089000691710F06FEF690FE62FF0E0EE58FE4F8A
:1008A0009489890F80680C94980341E00E94450365
:1008B00081E090E008951F920F920FB60F921124DD
:1008C0002F933F934F935F936F937F938F939F9358
:1008D000AF93BF93EF93FF9380916601909167016F
:1008E000A0916801B0916901892B8A2B8B2BD1F1E2
:1008F00090916101E0916201F0916301808189270B
:1009000080838091660190916701A0916801B09108
:100910006901181619061A061B069CF480916601D7
:1009200090916701A0916801B09169010197A109B7
:10093000B1098093660190936701A0936801B09319
:100940006901FF91EF91BF91AF919F918F917F913D
:100950006F915F914F913F912F910F900FBE0F902C
:100960001F901895809100010E941101EACF1F92FB
:100970000F920FB60F9211242F933F938F939F9353
:10098000AF93BF938091550190915601A09157016B
:10099000B09158013091540123E0230F2D3758F5C1
:1009A0000196A11DB11D2093540180935501909390
:1009B0005601A0935701B09358018091590190912D
:1009C0005A01A0915B01B0915C010196A11DB11D7E
:1009D0008093590190935A01A0935B01B0935C01FD
:1009E000BF91AF919F918F913F912F910F900FBE2B
:1009F0000F901F90189526E8230F0296A11DB11D98
:100A0000D2CF789484B5826084BD84B5816084BD82
:100A100085B5826085BD85B5816085BD80916E009C
:100A2000816080936E0010928100809181008260CD
:100A3000809381008091810081608093810080910A
:100A400080008160809380008091B10084608093F9
:100A5000B1008091B00081608093B00080917A00F5
:100A6000846080937A0080917A00826080937A001B
:100A700080917A00816080937A0080917A0080680A
:100A800080937A001092C10060E08FE00E943D01E7
:100A900060E08EE00E943D0160E08AE00E943D013E
:100AA00061E080E10E943D0164E084E10E94A603D0
:100AB00061E084E00E9446048DE091E00E94F5022E
:100AC00062E082E00E9446048AE191E00E94F50221
:100AD0006CED75E080E090E00E94BF020E949E03F2
:100AE000C6E8D0E00AE910E098EBE92E90E0F92E94
:100AF00020E0C22E20E0D22EFE018491F801A490C5
:100B0000F701B490BB2009F448C081110E94BA00DB
:100B1000EB2DF0E0EE0FFF1FEE58FF4FA591B491C3
:100B20008C91A82291E080E009F490E0A92EB82EE3
:100B3000B0926001A0925F018FE00E9488024C0198
:100B400090935E0180935D018EE00E948802AB2845
:100B500039F5FAE88F16F2E09F060CF076C08C3675
:100B600092400CF08DC064E670E080E090E00E945E
:100B7000BF020E949E0361E084E00E9446048AE274
:100B800091E00E94F50280E10E941101C114D1049C
:100B900009F4B2CF0E940000AFCFB12CA12CC8CF76
:100BA000EAE88E16E2E09E067CF18C3692400CF468
:100BB00082C064E670E080E090E00E94BF020E9484
:100BC0009E038CED95E00E946E0160E082E00E9441
:100BD000460487E391E00E94F50261E082E00E9412
:100BE00046048DE391E00E94F50262E082E00E94FB
:100BF000460482E491E00E94F50263E082E00E94F4
:100C0000460486E491E01EC08C3692400CF071C020
:100C100064E670E080E090E00E94BF020E949E03C4
:100C200084EF91E00E946E0161E086E00E9446043C
:100C300087E391E00E94F50262E086E00E944604AC
:100C40008DE391E00E94F502A1CF8C3692400CF02A
:100C50006BC064E670E080E090E00E94BF020E94FA
:100C60009E0384EF91E00E946E0161E086E00E94A5
:100C7000460487E391E00E94F50262E086E0BFCF80
:100C800064E670E080E090E00E94BF020E949E0354
:100C900084EF91E00E946E0161E086E00E944604CC
:100CA00087E391E00E94F50262E087E00E9446043B
:100CB00082E491E0C7CF64E670E080E090E00E94BB
:100CC000BF020E949E0388EE93E00E946E0161E0E5
:100CD00086E00E94460487E391E00E94F50262E00C
:100CE00087E00E9446048DE391E00E94F50263E0F4
:100CF000C5CF64E670E080E090E00E94BF020E94F1
:100D00009E0388EE93E00E946E0160E086E00E9400
:100D1000460487E391E00E94F50261E087E00E94CB
:100D200046048DE391E0BECF64E670E080E090E0A1
:100D30000E94BF020E949E0388EE93E00E946E0113
:100D400060E086E00E94460487E391E00E94F5029D
:100D500061E087E00E94460482E491E00E94F5028F
:100D600062E086E00E9446048DE491E06BCFE2E70A
:100D7000F1E01382128285E091E09183808382E02A
:100D800084838FEF858383E0868384E0878385E097
:100D9000808786E0818787E08287138614861586A0
:100DA0001686178661E080E10C94A603052E97FB5A
:100DB0001EF400940E94ED0657FD07D00E94F50630
:100DC00007FC03D04EF40C94ED06509540953095F9
:100DD00021953F4F4F4F5F4F0895909580957095A7
:100DE00061957F4F8F4F9F4F0895A1E21A2EAA1B46
:100DF000BB1BFD010DC0AA1FBB1FEE1FFF1FA217CB
:100E0000B307E407F50720F0A21BB30BE40BF50BC7
:100E1000661F771F881F991F1A9469F76095709550
:100E2000809590959B01AC01BD01CF010895EE0F17
:0E0E3000FF1F0590F491E02D0994F894FFCF78
:100E3E00FF0000000055048D00F202F102417264C1
:100E4E0075696E6F20486F6D65002D486F6D65205A
:100E5E0053656375726974792D00596F75206172CF
:100E6E0065207361666500416C61726D0046495282
:100E7E004500474153004D4F54494F4E004D6F743E
:040E8E00696F6E001A
:00000001FF
